{
  "_format": "hh-sol-artifact-1",
  "contractName": "Raffle",
  "sourceName": "contracts/Raffle.sol",
  "abi": [
    {
      "inputs": [
        {
          "internalType": "uint256",
          "name": "entranceFee",
          "type": "uint256"
        }
      ],
      "stateMutability": "nonpayable",
      "type": "constructor"
    },
    {
      "inputs": [],
      "name": "Raffle__NotEnoughETHEntered",
      "type": "error"
    },
    {
      "inputs": [],
      "name": "enterRaffle",
      "outputs": [],
      "stateMutability": "payable",
      "type": "function"
    },
    {
      "inputs": [],
      "name": "getEntranceFee",
      "outputs": [
        {
          "internalType": "uint256",
          "name": "",
          "type": "uint256"
        }
      ],
      "stateMutability": "view",
      "type": "function"
    },
    {
      "inputs": [
        {
          "internalType": "uint256",
          "name": "index",
          "type": "uint256"
        }
      ],
      "name": "getPlayers",
      "outputs": [
        {
          "internalType": "address",
          "name": "",
          "type": "address"
        }
      ],
      "stateMutability": "view",
      "type": "function"
    }
  ],
  "bytecode": "0x60a060405234801561001057600080fd5b5060405161039138038061039183398181016040528101906100329190610055565b8060808181525050506100a8565b60008151905061004f81610091565b92915050565b60006020828403121561006b5761006a61008c565b5b600061007984828501610040565b91505092915050565b6000819050919050565b600080fd5b61009a81610082565b81146100a557600080fd5b50565b6080516102c96100c86000396000818160af015260d501526102c96000f3fe6080604052600436106100345760003560e01c806309bc33a7146100395780632cfcc53914610064578063460e20491461006e575b600080fd5b34801561004557600080fd5b5061004e6100ab565b60405161005b91906101f1565b60405180910390f35b61006c6100d3565b005b34801561007a57600080fd5b506100956004803603810190610090919061018b565b61012f565b6040516100a291906101d6565b60405180910390f35b60007f0000000000000000000000000000000000000000000000000000000000000000905090565b7f000000000000000000000000000000000000000000000000000000000000000034101561012d576040517fbd4e069500000000000000000000000000000000000000000000000000000000815260040160405180910390fd5b565b600080828154811061014457610143610248565b5b9060005260206000200160009054906101000a900473ffffffffffffffffffffffffffffffffffffffff169050919050565b6000813590506101858161027c565b92915050565b6000602082840312156101a1576101a0610277565b5b60006101af84828501610176565b91505092915050565b6101c18161020c565b82525050565b6101d08161023e565b82525050565b60006020820190506101eb60008301846101b8565b92915050565b600060208201905061020660008301846101c7565b92915050565b60006102178261021e565b9050919050565b600073ffffffffffffffffffffffffffffffffffffffff82169050919050565b6000819050919050565b7f4e487b7100000000000000000000000000000000000000000000000000000000600052603260045260246000fd5b600080fd5b6102858161023e565b811461029057600080fd5b5056fea264697066735822122014e7ec5f11cdf981cf3d625d0944bfd19ad0f350ba3855a96e96fa91b8782e2664736f6c63430008070033",
  "linkReferences": {},
  "deployedLinkReferences": {}
}